:100000000C9463000C948B000C948B000C948B006C
:100010000C948B000C948B000C948B000C948B0034
:100020000C948B000C948B000C948B000C948B0024
:100030000C948B000C948B000C948B000C948B0014
:100040000C9462050C948B000C9430050C940A05FA
:100050000C948B000C948B000C948B000C948B00F4
:100060000C94AC050C948B000000000025002800C7
:100070002B0000000000240027002A0000000000E0
:1000800023002600290004040404040404040202DA
:100090000202020203030303030301020408102007
:1000A0004080010204081020010204081020000012
:1000B0000008000201000003040700000000000027
:1000C0000000C706BE0911241FBECFEFD8E0DEBF77
:1000D000CDBF11E0A0E0B1E0E0EDF9E102C0059094
:1000E0000D92AE3AB107D9F722E0AEEAB1E001C015
:1000F0001D92AA3EB207E1F710E0C2E6D0E004C0CC
:100100002197FE010E94B00BC136D107C9F70E94AA
:100110001E070C94DB0C0C940000AF92BF92CF92A0
:10012000DF92EF92FF920F931F93CF93DF936C01B7
:100130007B018B01040F151FEB015E01AE18BF0898
:10014000C017D10759F06991D601ED91FC9101904A
:10015000F081E02DC6010995892B79F7C501DF9162
:10016000CF911F910F91FF90EF90DF90CF90BF90B4
:10017000AF900895FC01538D448D252F30E0842FDE
:1001800090E0821B930B541710F0CF9608950197BF
:100190000895FC01918D828D981761F0A28DAE0FAC
:1001A000BF2FB11D5D968C91928D9F5F9F73928F33
:1001B00090E008958FEF9FEF0895FC01918D828D5F
:1001C000981731F0828DE80FF11D858D90E008952C
:1001D0008FEF9FEF0895FC01918D228D892F90E084
:1001E000805C9F4F821B91098F739927089589E244
:1001F00092E00E94EB0021E0892B09F420E0822F9D
:10020000089580E090E0892B29F00E94F700811189
:100210000C9400000895FC01A48DA80FB92FB11D06
:10022000A35ABF4F2C91848D90E001968F7399272C
:10023000848FA689B7892C93A089B1898C9183700A
:1002400080648C93938D848D981306C00288F38903
:10025000E02D80818F7D80830895EF92FF920F9330
:100260001F93CF93DF93EC0181E0888F9B8D8C8D62
:1002700098131AC0E889F989808185FF15C09FB756
:10028000F894EE89FF896083E889F9898081837019
:10029000806480839FBF81E090E0DF91CF911F91C8
:1002A0000F91FF90EF900895F62E0B8D10E00F5FE9
:1002B0001F4F0F731127E02E8C8D8E110CC00FB6BF
:1002C00007FCFACFE889F989808185FFF5CFCE0157
:1002D0000E940B01F1CFEB8DEC0FFD2FF11DE35AC6
:1002E000FF4FF0829FB7F8940B8FEA89FB898081DA
:1002F0008062CFCFCF93DF93EC01888D8823B9F054
:10030000AA89BB89E889F9898C9185FD03C0808120
:1003100086FD0DC00FB607FCF7CF8C9185FFF2CF9D
:10032000808185FFEDCFCE010E940B01E9CFDF91E7
:10033000CF910895833081F028F4813099F0823094
:10034000A9F008958730A9F08830C9F08430B1F45D
:10035000809180008F7D03C0809180008F77809393
:100360008000089584B58F7784BD089584B58F7D0E
:10037000FBCF8091B0008F778093B000089580917B
:10038000B0008F7DF9CF1F93CF93DF93282F30E0FC
:10039000F901E255FF4F8491F901E656FF4FD491E0
:1003A000F901EA57FF4FC491CC23A9F0162F811110
:1003B0000E949A01EC2FF0E0EE0FFF1FE859FF4F6B
:1003C000A591B4918FB7F894EC91111108C0D09514
:1003D000DE23DC938FBFDF91CF911F910895DE2B39
:1003E000F8CF8091D2028F3F19F061E00C94C301E5
:1003F00008958091C7029091C802892B41F0E09145
:10040000C902F091CA02908181819CBD8DBD80910D
:10041000D2028F3F19F060E00C94C3010895CF938E
:10042000DF9390E0FC01E656FF4F24918A579F4FDF
:10043000FC0184918823D1F090E0880F991FFC0182
:10044000EE58FF4FA591B491FC01E859FF4FC591BB
:10045000D49161110EC09FB7F8948C91E22FE09572
:100460008E238C932881E223E8839FBFDF91CF9175
:1004700008958FB7F894EC91E22BEC938FBFF6CFF1
:100480008230910538F0880F991F880F991F0597C2
:100490000197F1F70895CF92DF92EF92FF920F93B9
:1004A0001F93CF93DF932091C7023091C802232B73
:1004B00079F08EBD0DB407FEFDCFDEB48D2DDF913A
:1004C000CF911F910F91FF90EF90DF90CF90089503
:1004D0002091CF023091D002C1E0232B09F0C0E877
:1004E000CC24C394982F9C2309F0C12CD82F2091A1
:1004F000CB023091CC024091CD025091CE0260E20D
:1005000071EA87E090E00E948E0B122FDD2E00E052
:10051000E22EF12C112319F0C7010E9440028091B4
:10052000D102877F09F054C08091D4028F3FA1F09F
:100530009D2F9C2381E009F480E08C1569F0E09107
:10054000D602F091D7028091DE029923D9F19081F1
:10055000892B8083CC24C394E091D802F091D902F6
:1005600080819091E002892B8083112319F0C701CB
:100570000E9440028091D5028F3F51F0E091DA0253
:10058000F091DB0280819091DF02892309F00C2B2E
:10059000E091D802F091D90290818091E00280959B
:1005A000892380838091D5028F3F09F0D02E8091DE
:1005B000CF029091D002892B09F047C0CC0FC11116
:1005C000A9CF7CCF9081809589238083C12CC4CF13
:1005D000E091D802F091D90280819091E002892BBC
:1005E0008083112319F0C7010E9440028091D40238
:1005F0008F3F61F0E091D602F091D7028091DE0248
:100600009D2F9C23F1F09081892B8083E091D8026B
:10061000F091D90290818091E002809589238083B6
:100620008091D5028F3F09F4BDCFE091DA02F091BD
:10063000DB0280819091DF02892309F4B3CF0C2B78
:10064000B1CF908180958923E0CFC695B8CFCF9365
:10065000DF93D82FC62F0E94F9018D2F80680E944A
:100660004B028C2F0E944B02DF91CF910C94F10131
:10067000EF92FF920F931F93CF93DF93EC017B01D7
:100680008A010E94F90188810E944B02E7010E0D48
:100690001F1DC017D10729F08FEF0E944B028993CD
:1006A000F8CF0E94F10181E0DF91CF911F910F916E
:1006B000FF90EF900895CF93DF9300D0CDB7DEB7D2
:1006C0001A82898341E050E0BE016E5F7F4FCE0108
:1006D00001960E9438038A810F900F90DF91CF918D
:1006E00008959093E5028093E40280E00E945B030A
:1006F0002091E4023091E502682F2230310529F47F
:100700006F7B606880E00C9427036F776064FACF9A
:100710003FB7F8948091200290912102A09122028B
:10072000B091230226B5A89B05C02F3F19F0019672
:10073000A11DB11D3FBFBA2FA92F982F8827BC013B
:10074000CD01620F711D811D911D42E0660F771F63
:10075000881F991F4A95D1F708958F929F92AF9263
:10076000BF92CF92DF92EF92FF920E9488034B01DB
:100770005C018AE0C82ED12CE12CF12C0E94880368
:10078000681979098A099B09683E734081059105BA
:10079000A8F321E0C21AD108E108F10888EE880E1A
:1007A00083E0981EA11CB11CC114D104E104F10422
:1007B00029F7FF90EF90DF90CF90BF90AF909F9080
:1007C0008F9008952091D501260F3327331F2132B2
:1007D0003105ECF42091F901FC0190E080E0243037
:1007E00069F082E00895A091D5012191AC014B54AC
:1007F0005E4FA40FB52FB11D2C930196861798F369
:100800008091D501680F6093D50180E0089581E063
:10081000089508958FEF9FEF08958FEF9FEF08954C
:100820008091AE0190E09195819591090895CF93C3
:10083000DF93CB01EA01642F0E94E203CE01DF9136
:10084000CF910895CF93DF931F92CDB7DEB7698321
:1008500061E0CE0101960E94E20381E090E00F90FA
:10086000DF91CF91089590E080E00895FC01019020
:100870000020E9F73197AF01481B590BBC0189E211
:1008800092E00C948D008F929F92AF92BF920F9343
:100890001F93CF93DF93CDB7DEB7A1970FB6F89430
:1008A000DEBF0FBECDBF19A2423008F44AE08E0170
:1008B0000F5D1F4F842E912CB12CA12CA50194010A
:1008C0000E948E0BE62FB901CA01EA30F4F4E05D14
:1008D000D801EE938D01232B242B252B79F790E063
:1008E00080E0109719F0CD010E943604A1960FB652
:1008F000F894DEBF0FBECDBFDF91CF911F910F9156
:10090000BF90AF909F908F900895E95CE1CFCF9317
:10091000DF930E943604EC0188E191E00E943604E6
:100920008C0F9D1FDF91CF9108951F93CF93DF937D
:1009300085ED8093BC008091B1019091B201A091AE
:10094000B301B091B4010796A11DB11D23E0B69586
:10095000A795979587952A95D1F72091BC0024FDFE
:1009600003C01092F90152C04091B1015091B201FF
:100970006091B3017091B401452B462B472B69F36D
:100980000097A105B10541F02AE22A95F1F700C0D0
:100990000197A109B109E1CF8091B001C1E0C093F5
:1009A000AF01882399F1D091B8001091BA008091DD
:1009B000BC008A7B8093BC0060E082E10E94C3019E
:1009C00060E083E10E94C3011092F901C093FB0132
:1009D0001092FA0161E082E10E94C30161E083E1CB
:1009E0000E94C3018091B9008E7F8093B9008091ED
:1009F000B9008D7F8093B90088E48093B80085E4C6
:100A00008093BC001093BA00D093B800DF91CF91CF
:100A10001F9108951F920F920FB60F9211242F93DA
:100A20003F934F935F936F937F938F939F93AF9376
:100A3000BF93EF93FF9389E292E00E940B01FF9135
:100A4000EF91BF91AF919F918F917F916F915F9146
:100A50004F913F912F910F900FBE0F901F901895BF
:100A60001F920F920FB60F9211242F938F939F9383
:100A7000EF93FF93E0913902F0913A028081E09187
:100A80003F02F091400282FD1BC0908180914202A2
:100A90008F5F8F7320914302821741F0E0914202F1
:100AA000F0E0E75DFD4F958F80934202FF91EF915B
:100AB0009F918F912F910F900FBE0F901F901895BF
:100AC0008081F4CF1F920F920FB60F9211242F93B3
:100AD0003F938F939F93AF93BF9380912502909103
:100AE0002602A0912702B091280230911F0223E034
:100AF000230F2D3758F50196A11DB11D20931F021C
:100B00008093250290932602A0932702B093280297
:100B10008091200290912102A0912202B0912302A3
:100B20000196A11DB11D8093200290932102A093F4
:100B30002202B0932302BF91AF919F918F913F9179
:100B40002F910F900FBE0F901F90189526E8230F3E
:100B50000296A11DB11DD2CF1F920F920FB60F9218
:100B600011242F933F934F935F936F937F938F93B2
:100B70009F93AF93BF93EF93FF938091B900887FCA
:100B8000803609F44AC0F0F5883209F4A5C018F59A
:100B9000803109F499C0B8F4882309F4F5C088308D
:100BA00009F492C0FF91EF91BF91AF919F918F9106
:100BB0007F916F915F914F913F912F910F900FBE59
:100BC0000F901F901895883109F486C0803251F734
:100BD0008093F80114C0803409F49BC040F4803342
:100BE000B9F38833F9F68093F80185ECAEC080350F
:100BF00009F483C0883509F494C0883499F60E94BA
:100C00009504D0CF883909F48AC038F5883729F09F
:100C100050F4883611F0803729F683E08093F9018B
:100C20001092F70155C0883809F479C0803919F05D
:100C3000803809F0B7CF8091F701803208F06FC09B
:100C4000E091F70181E08E0F8093F7018091BB0066
:100C5000F0E0E952FE4F80833BC0803B39F0D0F496
:100C6000803A09F477C0883A09F09CCF84E08093F9
:100C7000F9011092D6011092D501F0E0E0E009955B
:100C80008091D50181110FC081E08093D501109230
:100C9000B50109C0803C09F4A8CF883C09F4A5CF70
:100CA000883B09F07FCFE091D60181E08E0F8093E1
:100CB000D601F0E0EB54FE4F80818093BB00909111
:100CC000D6018091D50129C080911E028093BB007E
:100CD00085EC8093BC0066CF90911D0280911C0230
:100CE000981758F5E0911D0281E08E0F80931D0248
:100CF000F0E0E450FE4F8081E9CFE0911D0281E0F9
:100D00008E0F80931D028091BB00F0E0E450FE4FF7
:100D1000808390911D0280911C029817C8F285E88B
:100D2000D8CFE0911D0281E08E0F80931D0280914B
:100D3000BB00F0E0E450FE4F80838091FB01811105
:100D40005ECF81E08093FA0184EA8093BC00109228
:100D5000F90128CF85EC8093BC001092F9018091B5
:100D6000F701803230F4E091F701F0E0E952FE4FF4
:100D700010826091F70170E087ED91E0F0E0E0E033
:100D800009951092F7010ECF1092F80138CFCF934A
:100D9000DF93E9E2F2E01382128288EE93E0A0E0B2
:100DA000B0E084839583A683B7838AE091E0918342
:100DB000808385EC90E09587848784EC90E097872A
:100DC000868780EC90E0918B808B81EC90E0938B18
:100DD000828B82EC90E0958B848B86EC90E0978BF5
:100DE000868B118E128E138E148EC7ECD2E08AE0A1
:100DF0008B878FEF8E878D878C8786EC92E0998327
:100E000088831B8E82E090E00E94B60B25E5FC01F2
:100E1000208311829B838A8380E492E4AFE0B0E078
:100E20008C839D83AE83BF8381E090E09987888720
:100E300084E08A871C8EDF91CF910895CF93DF9352
:100E400000D000D0CDB7DEB7789484B5826084BD81
:100E500084B5816084BD85B5826085BD85B58160BE
:100E600085BD80916E00816080936E00109281003C
:100E700080918100826080938100809181008160F7
:100E800080938100809180008160809380008091B8
:100E9000B10084608093B1008091B0008160809344
:100EA000B00080917A00846080937A0080917A000B
:100EB000826080937A0080917A00816080937A00CA
:100EC00080917A00806880937A001092C100E0914E
:100ED0003902F0913A0282E08083E0913502F0918C
:100EE00036021082E0913702F091380280E180836F
:100EF00010924102E0913D02F0913E0286E0808333
:100F0000E0913B02F0913C02808180618083E0911E
:100F10003B02F0913C02808188608083E0913B023B
:100F2000F0913C02808180688083E0913B02F091E7
:100F30003C0280818F7D80838BE191E00E94870459
:100F400060E083E00E940F028091D2028F3F41F067
:100F500061E00E940F0261E08091D2020E94C30111
:100F60008091C7029091C802892B09F478C01FB7FD
:100F7000F89480912402811127C0E0E9F0E0849187
:100F8000E4EAF0E09491E82FF0E0EE0FFF1FEE5856
:100F9000FF4FA591B491EC91E92321F461E08AE03F
:100FA0000E94C30161E08AE00E940F028CB580615B
:100FB0008CBD8CB580648CBD61E08DE00E940F0219
:100FC00061E08BE00E940F02809124028F5F80938A
:100FD00024021FBF81E08093E2028093E30260E07D
:100FE00082E00E94270360E180E00E94270360E026
:100FF00089E00E94270381E00E945B03807F682FC5
:10100000636081E00E94270390E080E00E9471030A
:1010100081E00E945B03807F682F676081E00E940F
:10102000270386E391E00E94360481E00E945B037F
:101030008F708D3008F081C0E82FF0E0EE5DF74F43
:101040000C94B00B5308850888088B088E0891080B
:10105000940897089A089D089D089D089A0861E0E1
:101060008091D3020E940F028091D1028B7F60E0B9
:1010700009F061E08091D3020E94C3018091D40203
:101080008F3F41F061E00E940F0261E08091D40245
:101090000E94C3018091D5028F3F09F49BCF60E08D
:1010A0000E940F0297CF8AE491E00E94870482E0B9
:1010B00090E00E94710369E8262E60E0362E00E081
:1010C00010E05AECE52EF12CE1EBF0E08491EDE933
:1010D000F0E0D490F101C490CC2091F181110E94F4
:1010E0009A01EC2DF0E0EE0FFF1FE458FF4FA591A1
:1010F000B4918C91D82221F1F1E0EF1AF10821F797
:101100008FE991E00E943604DCCF81E591E0CDCFFC
:1011100088E591E0CACF8FE591E0C7CF86E691E000
:10112000C4CF8DE691E0C1CF84E791E0BECF8BE7DD
:1011300091E0BBCF82E891E0B8CF87E991E0B5CFED
:101140008091E4029091E502892B09F04AC080E089
:101150000E945B038F77682F606480E00E94270302
:101160008FB7F894C0902502D0902602E090270215
:10117000F09028028FBF8091E4029091E5020297DF
:1011800081F180E00E945B0386FF2BC02FB7F894AB
:101190008091250290912602A0912702B091280209
:1011A0002FBF8C199D09AE09BF098B3F9105A10581
:1011B000B105A0F081EA91E00E94360488E191E057
:1011C0000E9436040115110509F47BCF0E94F70037
:1011D000882309F476CF0E94000073CF0E94AD03EC
:1011E000CACF19821A821B828CE08C8343E050E0C4
:1011F000BE016F5F7F4FCE0104960E943803698164
:101200007A81762767277627CB01B0E0A0E0BA2F56
:10121000A92F982F88272B81822BA7FDBF6FBC0198
:10122000CD0125E095958795779567952A95D1F716
:101230000E94670A20E030E040E05CE30E941C0B63
:101240006B017C014B015C01AC019B010E94890B8D
:101250008111B0CF26013701E89477F82FEF3FEFE7
:101260004FE75FE7C301B2010E94890B81110DC0F6
:101270002FEF3FEF4FE75FE7C301B2010E94310A52
:1012800018161CF485EA91E097CF2FEF3FEF4FE758
:101290005FE4C701B6010E94170B18161CF489EA17
:1012A00091E08ACF2FEF3FEF4FE75FECC701B60128
:1012B0000E94310A87FDF3CF20E030E0A901C70189
:1012C000B6010E94310A87FF0BC06DE289E292E00D
:1012D0000E942D0146015701B7FAB094B7F8B094B7
:1012E0002AE037ED43EA5BE3C501B4010E94C5097A
:1012F0004B015C010E94360A6B017C010E94650A69
:101300009B01AC01C501B4010E94C4094B015C0101
:101310004AE0C701B6010E9443046EE289E292E00E
:101320000E942D0120E030E040E251E4C501B4010B
:101330000E941C0B4B015C010E94360A6B01F12CD0
:10134000E12C4AE0C701B6010E944304C701B6017F
:101350000E94650A9B01AC01C501B4010E94C40949
:1013600020E030E040E251E40E941C0B0E94360A6B
:1013700090E080E04AE00E94430420CF8091C902BF
:101380009091CA020C94520C5058BB27AA270E9475
:10139000DC090C94DD0A0E94CF0A38F00E94D60ABC
:1013A00020F039F49F3F19F426F40C94CC0A0EF483
:1013B000E095E7FB0C94C60AE92F0E94EE0A58F369
:1013C000BA17620773078407950720F079F4A6F52A
:1013D0000C94100B0EF4E0950B2EBA2FA02D0B01E0
:1013E000B90190010C01CA01A0011124FF27591B6A
:1013F00099F0593F50F4503E68F11A16F040A22F70
:10140000232F342F4427585FF3CF469537952795E0
:10141000A795F0405395C9F77EF41F16BA0B620BDF
:10142000730B840BBAF09150A1F0FF0FBB1F661F26
:10143000771F881FC2F70EC0BA0F621F731F841F69
:1014400048F4879577956795B795F7959E3F08F08F
:10145000B0CF9395880F08F09927EE0F9795879551
:1014600008950E94A20A08F481E008950E94F60AF5
:1014700088F09F5798F0B92F9927B751B0F0E1F055
:10148000660F771F881F991F1AF0BA95C9F714C005
:10149000B13091F00E94100BB1E008950C94100B44
:1014A000672F782F8827B85F39F0B93FCCF386953E
:1014B00077956795B395D9F73EF49095809570959B
:1014C00061957F4F8F4F9F4F0895E89409C097FB18
:1014D0003EF490958095709561957F4F8F4F9F4F0B
:1014E0009923A9F0F92F96E9BB279395F69587954F
:1014F00077956795B795F111F8CFFAF4BB0F11F412
:1015000060FF1BC06F5F7F4F8F4F9F4F16C08823B8
:1015100011F096E911C0772321F09EE8872F762FEE
:1015200005C0662371F096E8862F70E060E02AF02F
:101530009A95660F771F881FDAF7880F969587951B
:1015400097F90895990F0008550FAA0BE0E8FEEFF0
:1015500016161706E807F907C0F012161306E40777
:10156000F50798F0621B730B840B950B39F40A2670
:1015700061F0232B242B252B21F408950A2609F44E
:10158000A140A6958FEF811D811D089597F99F6752
:1015900080E870E060E008959FEF80EC08950024FB
:1015A0000A941616170618060906089500240A94C8
:1015B00012161306140605060895092E0394000C4E
:1015C00011F4882352F0BB0F40F4BF2B11F460FFDD
:1015D00004C06F5F7F4F8F4F9F4F089557FD905806
:1015E000440F551F59F05F3F71F04795880F97FBE7
:1015F000991F61F09F3F79F08795089512161306A1
:101600001406551FF2CF4695F1DF08C016161706CF
:101610001806991FF1CF8695710561050894089504
:10162000E894BB2766277727CB0197F908950E9496
:10163000A20A08F48FEF08950E942F0B0C94DD0A84
:101640000E94CF0A38F00E94D60A20F0952311F0AC
:101650000C94C60A0C94CC0A11240C94110B0E9411
:10166000EE0A70F3959FC1F3950F50E0551F629FEE
:10167000F001729FBB27F00DB11D639FAA27F00DEB
:10168000B11DAA1F649F6627B00DA11D661F829F12
:101690002227B00DA11D621F739FB00DA11D621FF7
:1016A000839FA00D611D221F749F3327A00D611D14
:1016B000231F849F600D211D822F762F6A2F1124F6
:1016C0009F5750409AF0F1F088234AF0EE0FFF1F29
:1016D000BB1F661F771F881F91505040A9F79E3F80
:1016E000510580F00C94C60A0C94110B5F3FE4F393
:1016F000983ED4F3869577956795B795F795E795D6
:101700009F5FC1F7FE2B880F911D9695879597F9DE
:1017100008950E94A20A880B990B0895A1E21A2E3F
:10172000AA1BBB1BFD010DC0AA1FBB1FEE1FFF1F85
:10173000A217B307E407F50720F0A21BB30BE40BD5
:10174000F50B661F771F881F991F1A9469F760951C
:101750007095809590959B01AC01BD01CF010895D6
:10176000EE0FFF1F0590F491E02D09940F931F9346
:10177000CF93DF938230910510F482E090E0E09106
:10178000E802F091E90230E020E0B0E0A0E030971C
:1017900099F42115310509F44AC0281B390B24306E
:1017A0003105D8F58A819B816115710589F1FB01AD
:1017B00093838283FE0111C0408151810281138194
:1017C00048175907E0F04817590799F4109761F046
:1017D00012960C93129713961C933296CF01DF91B9
:1017E000CF911F910F9108950093E8021093E902A1
:1017F000F4CF2115310551F04217530738F0A901F4
:10180000DB019A01BD01DF01F801C1CFEF01F9CF82
:101810009093E9028093E802CDCFFE01E20FF31F1F
:10182000819391932250310939832883D7CF209116
:10183000E6023091E702232B41F42091020130911E
:1018400003013093E7022093E602209100013091DA
:1018500001012115310541F42DB73EB74091040136
:1018600050910501241B350BE091E602F091E7024F
:10187000E217F307A0F42E1B3F0B2817390778F067
:10188000AC014E5F5F4F2417350748F04E0F5F1FC6
:101890005093E7024093E602819391939FCFF0E04B
:1018A000E0E09CCFCF93DF930097E9F0FC01329703
:1018B00013821282A091E802B091E902ED0130E0BA
:1018C00020E01097A1F420813181820F931F209195
:1018D000E6023091E7022817390709F061C0F0935A
:1018E000E702E093E602DF91CF910895EA01CE1777
:1018F000DF07E8F54A815B819E0141155105B1F78B
:10190000E901FB83EA8349915991C40FD51FEC1774
:10191000FD0761F4808191810296840F951FE90192
:1019200099838883828193819B838A83F0E0E0E0BE
:1019300012968D919C9113970097B9F52D913C913A
:101940001197CD010296820F931F2091E6023091EC
:10195000E7022817390739F6309751F51092E90256
:101960001092E802B093E702A093E602BCCFD383C3
:10197000C28340815181840F951FC817D90761F434
:101980004E5F5F4F88819981480F591F5183408373
:101990008A819B81938382832115310509F0B0CF21
:1019A000F093E902E093E8029ECFFD01DC01C0CF95
:1019B00013821282D7CF10E0C2E6D0E004C0FE014D
:1019C0000E94B00B2196C336D107C9F7F894FFCF18
:1019D0000000EA028000000000002D018D00BA0026
:1019E0007A01EB00C900DD000D0A004D415833318A
:1019F00038353620746865726D6F636F75706C650D
:101A0000207465737400546865726D6F636F7570D0
:101A10006C6520747970653A2000422054797065B5
:101A200000452054797065004A2054797065004B58
:101A30002054797065004E2054797065005220540E
:101A40007970650053205479706500542054797082
:101A50006500566F6C74616765207838204761694E
:101A60006E206D6F646500556E6B6E6F776E002E25
:0E1A7000006E616E00696E66006F76660000A3
:00000001FF
