:020000040000FA
:100000000C945E000C94F70B0C94D00B0C948600AF
:100010000C9486000C9486000C9486000C94860048
:100020000C9486000C9486000C9486000C94860038
:100030000C9486000C9486000C9486000C94860028
:100040000C94860B0C9486000C94540B0C942E0B81
:100050000C9486000C9486000C9486000C94860008
:100060000C941E0C0C948600000000002500280053
:100070002B0000000008000201000003040700003C
:1000800000000000000000000000240027002A00FB
:10009000010204081020408001020408102001021F
:1000A00004081020040404040404040402020202EC
:1000B0000202030303030303390DF11011241FBED1
:1000C000CFEFD8E0DEBFCDBF11E0A0E0B1E0ECE1C2
:1000D000FAE202C005900D92A634B107D9F723E0E9
:1000E000A6E4B1E001C01D92A031B207E1F710E033
:1000F000CDE5D0E004C02197FE010E94D613CC3597
:10010000D107C9F70E94520E0C9401150C940000FF
:10011000AF92BF92CF92DF92EF92FF920F931F9315
:10012000CF93DF936C017B018B01040F151FEB0153
:100130005E01AE18BF08C017D10759F06991D6010A
:10014000ED91FC910190F081E02DC6010995892B7C
:1001500079F7C501DF91CF911F910F91FF90EF903B
:10016000DF90CF90BF90AF900895FC01538D448DE8
:10017000252F30E0842F90E0821B930B541710F052
:10018000CF96089501970895FC01918D828D98175F
:1001900061F0A28DAE0FBF2FB11D5D968C91928D37
:1001A0009F5F9F73928F90E008958FEF9FEF089568
:1001B000FC01918D828D981731F0828DE80FF11D31
:1001C000858D90E008958FEF9FEF0895FC01918D4C
:1001D000228D892F90E0805C9F4F821B91098F7345
:1001E0009927089587EC91E00E94E60021E0892B91
:1001F00009F420E0822F089580E090E0892B29F017
:100200000E94F20081110C9400000895FC01A48D5D
:10021000A80FB92FB11DA35ABF4F2C91848D90E028
:1002200001968F739927848FA689B7892C93A0890B
:10023000B1898C91837080648C93938D848D981395
:1002400006C00288F389E02D80818F7D8083089528
:10025000EF92FF920F931F93CF93DF93EC0181E016
:10026000888F9B8D8C8D98131AC0E889F9898081BD
:1002700085FF15C09FB7F894EE89FF896083E889F0
:10028000F98980818370806480839FBF81E090E0E2
:10029000DF91CF911F910F91FF90EF900895F62E6F
:1002A0000B8D10E00F5F1F4F0F731127E02E8C8D09
:1002B0008E110CC00FB607FCFACFE889F98980814E
:1002C00085FFF5CFCE010E940601F1CFEB8DEC0F3B
:1002D000FD2FF11DE35AFF4FF0829FB7F8940B8F6B
:1002E000EA89FB8980818062CFCFCF93DF93EC01D5
:1002F000888D8823B9F0AA89BB89E889F9898C910E
:1003000085FD03C0808186FD0DC00FB607FCF7CFC9
:100310008C9185FFF2CF808185FFEDCFCE010E94C9
:100320000601E9CFDF91CF91089590E0FC01EE58EE
:10033000FF4F2491FC01E057FF4F3491FC01EC5535
:10034000FF4FE491EE23C9F0222339F0233001F16D
:10035000A8F4213019F1223029F1F0E0EE0FFF1F4F
:10036000E859FF4FA591B4918FB7F894EC916111C2
:1003700026C030953E233C938FBF08952730A9F0C7
:100380002830C9F0243049F7809180008F7D03C068
:10039000809180008F7780938000DFCF84B58F7746
:1003A00084BDDBCF84B58F7DFBCF8091B0008F778C
:1003B0008093B000D2CF8091B0008F7DF9CF3E2BDB
:1003C000DACF809170028F3F19F061E00C949501B3
:1003D00008958091650290916602892B41F0E09129
:1003E0006702F0916802908181819CBD8DBD8091F2
:1003F00070028F3F19F060E00C9495010895CF933F
:10040000DF9390E0FC01E057FF4F24918C559F4F04
:10041000FC0184918823D1F090E0880F991FFC01A2
:10042000EA57FF4FA591B491FC01E859FF4FC591E0
:10043000D49161110EC09FB7F8948C91E22FE09592
:100440008E238C932881E223E8839FBFDF91CF9195
:1004500008958FB7F894EC91E22BEC938FBFF6CF11
:100460008230910538F0880F991F880F991F0597E2
:100470000197F1F70895CF92DF92EF92FF920F93D9
:100480001F93CF93DF932091650230916602232B57
:1004900079F08EBD0DB407FEFDCFDEB48D2DDF915A
:1004A000CF911F910F91FF90EF90DF90CF90089523
:1004B00020916D0230916E02C1E0232B09F0C0E85B
:1004C000CC24C394982F9C2309F0C12CD82F2091C1
:1004D000690230916A0240916B0250916C0260E2B5
:1004E00071EA87E090E00E949513122FDD2E00E064
:1004F000E22EF12C112319F0C7010E9430028091E5
:100500006F02877F09F054C0809172028F3FA1F083
:100510009D2F9C2381E009F480E08C1569F0E09127
:100520007402F091750280917C029923D9F1908137
:10053000892B8083CC24C394E0917602F0917702DA
:10054000808190917E02892B8083112319F0C7014D
:100550000E943002809173028F3F51F0E091780247
:10056000F0917902808190917D02892309F00C2B12
:10057000E0917602F0917702908180917E028095E1
:1005800089238083809173028F3F09F0D02E809160
:100590006D0290916E02892B09F047C0CC0FC111FA
:1005A000A9CF7CCF9081809589238083C12CC4CF33
:1005B000E0917602F0917702808190917E02892B02
:1005C0008083112319F0C7010E94300280917202CA
:1005D0008F3F61F0E0917402F091750280917C028E
:1005E0009D2F9C23F1F09081892B8083E0917602EE
:1005F000F0917702908180917E028095892380839B
:10060000809173028F3F09F4BDCFE0917802F091A1
:100610007902808190917D02892309F4B3CF0C2B5C
:10062000B1CF908180958923E0CFC695B8CFEF9266
:10063000FF920F931F93CF93DF93EC017B018A010D
:100640000E94E90188810E943B02E7010E0D1F1DF7
:10065000C017D10729F08FEF0E943B028993F8CF92
:100660000E94E10181E0DF91CF911F910F91FF90F6
:10067000EF900895CF93DF9300D0CDB7DEB71A8205
:10068000898341E050E0BE016E5F7F4FCE0101964D
:100690000E9417038A810F900F90DF91CF910895E8
:1006A000CF93DF93D82FC62F0E94E9018D2F80684A
:1006B0000E943B028C2F0E943B02DF91CF910C9451
:1006C000E101909383028093820280E00E943A03CA
:1006D0002091820230918302682F2230310529F463
:1006E0006F7B606880E00C9450036F776064FACF92
:1006F0003FB7F8948091BC019091BD01A091BE01DB
:10070000B091BF0126B5A89B05C02F3F19F00196F7
:10071000A11DB11D3FBFBA2FA92F982F8827BC015B
:10072000CD01620F711D811D911D42E0660F771F83
:10073000881F991F4A95D1F708958F929F92AF9283
:10074000BF92CF92DF92EF92FF924B015C010E9429
:1007500078036B017C010E9478036C197D098E0976
:100760009F09683E734081059105A8F321E0821A34
:100770009108A108B10888EEC80E83E0D81EE11CDC
:10078000F11C81149104A104B10429F7FF90EF90AA
:10079000DF90CF90BF90AF909F908F900895089575
:1007A00020916D01260F3327331F21323105ECF4E0
:1007B00020919101FC0190E080E0243069F082E01A
:1007C0000895A0916D012191AC01435B5E4FA40F90
:1007D000B52FB11D2C930196861798F380916D016A
:1007E000680F60936D0180E0089581E00895089599
:1007F0008FEF9FEF08958FEF9FEF0895809146014F
:1008000090E09195819591090895CF93DF93CB0165
:10081000EA01642F0E94D003CE01DF91CF910895A9
:10082000CF93DF931F92CDB7DEB7698361E0CE012E
:1008300001960E94D00381E090E00F90DF91CF916C
:10084000089590E080E008954F925F926F927F92BA
:10085000AF92BF92CF92DF92EF92FF920F931F93CE
:10086000CF93DF93EC015A018B01488C598C6A8C31
:100870007B8C73016201F7FAF094F7F8F0949A0117
:10088000AB01C701B6010E94C312181664F09501AE
:10089000A801C301B2010E9464117301620187FDC6
:1008A00002C06501780120E030E0A901C701B6016E
:1008B0000E946411811117C01CA21DA21EA21FA2BA
:1008C000CC8ADD8AEE8AFF8ADF91CF911F910F914A
:1008D000FF90EF90DF90CF90BF90AF907F906F90A0
:1008E0005F904F900895A701960160E074E284E75D
:1008F00099E40E9469119F770E94E2116CA37DA385
:100900008EA39FA311E020E030E0A901C701B6014A
:100910000E94C31218160CF010E01A83D1CFCF93A7
:10092000DF93FC012381222359F1EC0161E08481F2
:100930000E94FF0161E08D810E94FF018B81843064
:1009400011F08830B1F461E08E810E94FF0161E016
:100950008F810E94FF018FA58F3F91F061E00E947F
:10096000FF016EA581E068278FA5DF91CF910C94E0
:100970009501833011F0863071F761E08E81E9CF07
:10098000DF91CF910895CF93DF93FC012381222340
:10099000A9F0EC010190F081E02D0480F581E02DBB
:1009A00060E009958FA58F3F49F061E00E94FF014B
:1009B0006EA58FA5DF91CF910C949501DF91CF911A
:1009C0000895DC01ED91FC91248135814770552714
:1009D0006627772741505109610971094730510550
:1009E0006105710560F4FA01E850FB4F0C94D613D1
:1009F00002050405060508050A050C050E0561E05B
:100A0000F901099465E0FCCF64E0FACF66E0F8CF25
:100A100062E0F6CF6AE0F4CF68E0F2CF69E0F0CFB1
:100A2000CF93DF93EC01CB01BA0126E030E040E048
:100A300050E00E94B713623071058105910589F17C
:100A40006CF46115710581059105D1F06130710576
:100A500081059105F9F0DF91CF910895643071051A
:100A60008105910561F124F16530710581059105DC
:100A700091F7E881F9810480F581E02D66E006C0F8
:100A8000E881F9810480F581E02D64E0CE01DF91F9
:100A9000CF910994E881F9810480F581E02D65E02A
:100AA000F5CFE881F9810480F581E02D61E0EECF9A
:100AB000E881F9810480F581E02D63E0E7CFE881EA
:100AC000F9810480F581E02D62E0E0CFDC01ED9159
:100AD000FC910480F581E02D437055276627772728
:100AE000423051056105710571F0433051056105D2
:100AF000710559F0413051056105710511F065E04E
:100B0000099466E0FDCF6AE0FBCF69E0F9CFCF93AF
:100B1000DF93EC01CB01BA0123E030E040E050E08C
:100B20000E94B713613071058105910599F062301B
:100B3000710581059105A9F0672B682B692BC1F41C
:100B4000E881F9810480F581E02D64E0CE01DF9138
:100B5000CF910994E881F9810480F581E02D61E06D
:100B6000F5CFE881F9810480F581E02D62E0EECFD8
:100B7000DF91CF910895DC01ED91FC910480F58126
:100B8000E02D4370552766277727423051056105D0
:100B9000710571F0433051056105710559F041301F
:100BA00051056105710511F062E0099463E0FDCF24
:100BB00061E0FBCF60E0F9CFCF93DF93EC01E881F8
:100BC000F9810480F581E02D8A8160E0811162E085
:100BD000CE010995E881F9810480F581E02D8A81B3
:100BE00061E0811163E0CE0109958CA59DA50E946D
:100BF0003002E881F9810480F581E02D8A8160E08E
:100C0000811162E0CE01DF91CF910994CF93DF9300
:100C1000EC0120E030E0A9016C897D898E899F89F3
:100C20000E94C31218162CF4E8A9F9A9DF91CF91FC
:100C30000994EAA9FBA9FACFCF92DF92EF92FF9233
:100C40000F931F93CF93DF93DC011396CC91C430A5
:100C500039F0C83059F1C33019F0C63049F1C2E05B
:100C60008C010C5F1F4FF12CE12CC62ED12CD1E052
:100C7000F8016481C6010E2C02C0959587950A94EF
:100C8000E2F780FD6D270F5F1F4F80810E94950165
:100C9000BFEFEB1AFB0AEC1658F3DF91CF911F91CF
:100CA0000F91FF90EF90DF90CF900895C4E0D8CFE0
:100CB000C3E0D6CFDC011396EC911397E93008F02E
:100CC00038C0F0E0EA59F94F0C94D6136F06750658
:100CD0007B068106870699068D0699069306ED9197
:100CE000FC910084F185E02D0994ED91FC91028442
:100CF000F385E02DF9CFED91FC910484F585E02D8D
:100D0000F3CFED91FC910684F785E02DEDCFED91C9
:100D1000FC910088F189E02DE7CFED91FC910288EC
:100D2000F389E02DE1CFED91FC910488F589E02D68
:100D3000DBCF08954F925F926F927F928F929F9236
:100D4000AF92BF92CF92DF92EF92FF920F931F93D9
:100D5000CF93DF93EC01C888D988EA88FB888C851B
:100D60009D85AE85BF85C81AD90AEA0AFB0A6C8937
:100D70007D898E899F899B01AC010E94C8124B011D
:100D80005C016C8D7D8D8E8D9F8D9B01AC010E94D1
:100D9000F8109B01AC01C501B4010E9469110E94C9
:100DA000DB11C114D104E104F10409F0B1C06230D7
:100DB0007105810591050CF0CBC01CA21DA21EA2DD
:100DC0001FA21C8A1D8A1E8A1F8A1CAA1DAA1EAA6F
:100DD0001FAADF91CF911F910F91FF90EF90DF90AD
:100DE000CF90BF90AF909F908F907F906F905F90CB
:100DF0004F9008951016110612061306B4F46C15E0
:100E00007D058E059F051CF42A812111A1C09B013F
:100E1000AC0188279927DC01821B930BA40BB50B2F
:100E20008CAB9DABAEABBFAB93C0011511052105DB
:100E3000310509F48DC06C157D058E059F050CF0FC
:100E400087C08A81882309F483C030952095109546
:100E500001951F4F2F4F3F4F0CAB1DAB2EAB3FAB40
:100E600077C0011511052105310509F471C08824E9
:100E7000992454018C189D08AE08BF08681579059F
:100E80008A059B050CF064C08A81811161C0DDCFA9
:100E9000CCACDDACEEACFFACA7019601C701B6014E
:100EA0000E94F8102B013C01C501B4010E941312ED
:100EB00020E030E040E850E40E94C81220E030E03A
:100EC00040E85FE30E94F8109B01AC01C301B2014E
:100ED0000E9469119B01AC01C701B6010E94F71085
:100EE0003B016C01FE01E05CFF4FE080F18002817C
:100EF00013819701A8010E94C312181614F47301FC
:100F00008601C701D8018CAF9DAFAEAFBFAF3AC06D
:100F10000CA91DA92EA93FA91C141D041E041F0401
:100F20000CF468CF10161106120613060CF099CFB8
:100F30000027112798010C191D092E093F09601778
:100F40007107820793070CF062CF2A8121115FCFCE
:100F50008CA89DA8AEA8BFA881149104A104B104D7
:100F600009F096CF88AD99ADAAADBBAD8CAF9DAF62
:100F7000AEAFBFAF81E01C141D041E041F040CF0B3
:100F800080E08A833FEF831A930AA30AB30A8CAAEC
:100F90009DAAAEAABFAACCACDDACEEACFFACC7013B
:100FA000B6010E94E2116CA37DA38EA39FA3A701AB
:100FB000960160E074E284E799E40E9469116C8B09
:100FC0007D8B8E8B9F8B2A81211103CF90586C8B48
:100FD0007D8B8E8B9F8BFDCECF92DF92EF92FF9217
:100FE000CF93DF93EC018CA19DA1AEA1BFA1892B72
:100FF0008A2B8B2B99F10E9478036B017C0188A5C9
:1010000099A5AAA5BBA5B701A601481B590B6A0B58
:101010007B0B8CA19DA1AEA1BFA1481759076A0700
:101020007B07E0F08C859D85AE85BF852A812223D4
:10103000B1F10196A11DB11D8C879D87AE87BF8739
:101040004C855D856E857F85CE010E945A06C8A6B7
:10105000D9A6EAA6FBA6CE010E949A0620E030E0BF
:10106000A9016C897D898E899F890E9464118111F3
:101070001AC081E0C888D988EA88FB884C855D85DC
:101080006E857F85C416D506E606F70609F480E06E
:10109000DF91CF91FF90EF90DF90CF90089501976F
:1010A000A109B109C9CF81E0F3CF0F931F93FC01D0
:1010B0000485158526853785400F511F621F731FD4
:1010C0000089118922893389401751076207730704
:1010D00041F0408B518B628B738B1F910F910C945D
:1010E0009A061F910F910895CF92DF92EF92FF928F
:1010F000CF93DF9300D000D0CDB7DEB780918202CE
:1011000090918302892BD9F580E00E943A038F7772
:10111000682F606480E00E9450038FB7F894C090FD
:10112000B801D090B901E090BA01F090BB018FBF37
:101130008091820290918302029709F180E00E94DF
:101140003A0386FF1CC02FB7F8948091B8019091A4
:10115000B901A091BA01B091BB012FBF8C199D09B3
:10116000AE09BF098B3F9105A105B10508F04CC040
:101170006AE070E080E090E00E949D03D9CF198280
:101180001A821B828CE08C8343E050E0BE016F5FCB
:101190007F4FCE0104960E94170369817A817627DA
:1011A00067277627CB01B0E0A0E0BA2FA92F982FB0
:1011B00088272B81822BA7FDBF6FBC01CD0125E0C5
:1011C00095958795779567952A95D1F70E94131283
:1011D00020E030E040E05CE30E94C8126093C1016F
:1011E0007093C2018093C3019093C40181E0809306
:1011F000C5010F900F900F900F90DF91CF91FF904E
:10120000EF90DF90CF90089560E070E080EC9FE772
:10121000E5CFFC0101900020E9F73197AF01481BB1
:10122000590BBC0187EC91E00C9488008F929F923F
:10123000AF92BF920F931F93CF93DF93CDB7DEB7DB
:10124000A1970FB6F894DEBF0FBECDBF19A24230F2
:1012500008F44AE08E010F5D1F4F842E912CB12CB3
:10126000A12CA50194010E949513E62FB901CA0192
:10127000EA30F4F4E05DD801EE938D01232B242BAA
:10128000252B79F790E080E0109719F0CD010E94AE
:101290000909A1960FB6F894DEBF0FBECDBFDF914E
:1012A000CF911F910F91BF90AF909F908F90089515
:1012B000E95CE1CF4F925F926F927F928F929F9203
:1012C000AF92BF92CF92DF92EF92FF920F931F9354
:1012D000CF936B017C01742EAC019B010E947B13A8
:1012E000882399F086E391E0CF911F910F91FF90B1
:1012F000EF90DF90CF90BF90AF909F908F907F90B6
:101300006F905F904F900C94090946015701E89443
:10131000B7F82FEF3FEF4FE75FE7C501B4010E9439
:101320007B1381110DC02FEF3FEF4FE75FE7C50142
:10133000B4010E94641118161CF48AE391E0D4CF22
:101340002FEF3FEF4FE75FE4C701B6010E94C312E2
:1013500018161CF48EE391E0C7CF2FEF3FEF4FE755
:101360005FECC701B6010E94641187FDF3CF20E056
:1013700030E0A901C701B6010E94641110E000E04D
:1013800087FF0AC06DE287EC91E00E9428018C0182
:10139000F7FAF094F7F8F094C0E060E070E080E0D5
:1013A0009FE37C1641F020E030E040E251E40E94EF
:1013B0006911CF5FF6CFA70196010E94F8102B01AB
:1013C0003C010E94E2114B015C014AE00E941609B7
:1013D0007C01E00EF11ECC23C1F1C501B4010E94D5
:1013E00011129B01AC01C301B2010E94F7104B0125
:1013F0005C016EE287EC91E00E942801E80EF91E84
:10140000C15018F120E030E040E251E4C501B401E0
:101410000E94C8122B013C010E94E2114B01B12C29
:10142000A12C4AE0C501B4010E941609E80EF91E7C
:10143000C501B4010E9411129B01AC01C301B201AC
:101440000E94F7104B015C01DBCFC701CF911F91C8
:101450000F91FF90EF90DF90CF90BF90AF909F9053
:101460008F907F906F905F904F9008951F93CF93D0
:10147000DF9385ED8093BC008091490190914A01F2
:10148000A0914B01B0914C010796A11DB11D23E025
:10149000B695A795979587952A95D1F72091BC0089
:1014A00024FD03C01092910152C040914901509116
:1014B0004A0160914B0170914C01452B462B472B03
:1014C00069F30097A105B10541F02AE22A95F1F7E9
:1014D00000C00197A109B109E1CF80914801C1E0A5
:1014E000C0934701882399F1D091B8001091BA00B8
:1014F0008091BC008A7B8093BC0060E082E10E9406
:10150000950160E083E10E94950110929101C093E2
:1015100093011092920161E082E10E94950161E0E5
:1015200083E10E9495018091B9008E7F8093B9007C
:101530008091B9008D7F8093B90088E48093B800D2
:1015400085E48093BC001093BA00D093B800DF917B
:10155000CF911F9108954F925F926F927F928F92D9
:101560009F92AF92BF92CF92DF92EF92FF92CF9372
:10157000DF93EC016A017B0120E030E0A901CB019F
:10158000B6010E94641187FF04C0F7FAF094F7F8DF
:10159000F0948C8C9D8CAE8CBF8CA7019601C501FC
:1015A000B4010E946411882309F449C06CA97DA983
:1015B0008EA99FA90E9413122B013C01A70196013D
:1015C000C501B4010E9469119B01AC01C301B201C4
:1015D0000E94C8120E94DB116CAB7DAB8EAB9FAB3F
:1015E000A701960160E070E080E090E40E9469113C
:1015F0000E943B1326E53EE04DE25FE30E94C812E5
:1016000020E034E244E759E40E94C81268AF79AFA1
:101610008AAF9BAFCC8EDD8EEE8EFF8ECE01DF913A
:10162000CF91FF90EF90DF90CF90BF90AF909F90C1
:101630008F907F906F905F904F900C949A06DF91FF
:10164000CF91FF90EF90DF90CF90BF90AF909F90A1
:101650008F907F906F905F904F9008951F920F92A0
:101660000FB60F9211242F933F934F935F936F9375
:101670007F938F939F93AF93BF93EF93FF9387ECE9
:1016800091E00E940601FF91EF91BF91AF919F9170
:101690008F917F916F915F914F913F912F910F901B
:1016A0000FBE0F901F9018951F920F920FB60F92BA
:1016B00011242F938F939F93EF93FF93E091D70182
:1016C000F091D8018081E091DD01F091DE0182FD91
:1016D0001BC090818091E0018F5F8F732091E101A9
:1016E000821741F0E091E001F0E0E953FE4F958F61
:1016F0008093E001FF91EF919F918F912F910F9037
:101700000FBE0F901F9018958081F4CF1F920F92FB
:101710000FB60F9211242F933F938F939F93AF9304
:10172000BF938091B8019091B901A091BA01B09195
:10173000BB013091B70123E0230F2D3758F50196F7
:10174000A11DB11D2093B7018093B8019093B901F9
:10175000A093BA01B093BB018091BC019091BD01EF
:10176000A091BE01B091BF010196A11DB11D809352
:10177000BC019093BD01A093BE01B093BF01BF9186
:10178000AF919F918F913F912F910F900FBE0F902E
:101790001F90189526E8230F0296A11DB11DD2CFE8
:1017A0001F920F920FB60F9211242F933F934F93D6
:1017B0005F936F937F938F939F93AF93BF93EF93B9
:1017C000FF93E0910201F09103010995FF91EF91E0
:1017D000BF91AF919F918F917F916F915F914F9149
:1017E0003F912F910F900FBE0F901F9018951F9251
:1017F0000F920FB60F9211242F933F934F935F9345
:101800006F937F938F939F93AF93BF93EF93FF93C8
:10181000E0910001F09101010995FF91EF91BF91D5
:10182000AF919F918F917F916F915F914F913F9178
:101830002F910F900FBE0F901F9018951F920F922F
:101840000FB60F9211242F933F934F935F936F9393
:101850007F938F939F93AF93BF93EF93FF93809169
:10186000B900887F803609F44AC0F0F5883209F45F
:10187000A5C018F5803109F499C0B8F4882309F49B
:10188000F5C0883009F492C0FF91EF91BF91AF91FC
:101890009F918F917F916F915F914F913F912F9188
:1018A0000F900FBE0F901F901895883109F486C0D5
:1018B000803251F78093900114C0803409F49BC0AA
:1018C00040F48033B9F38833F9F68093900185ECC6
:1018D000AEC0803509F483C0883509F494C08834DB
:1018E00099F60E94360AD0CF883909F48AC038F5B3
:1018F000883729F050F4883611F0803729F683E0D4
:101900008093910110928F0155C0883809F479C0F5
:10191000803919F0803809F0B7CF80918F0180327B
:1019200008F06FC0E0918F0181E08E0F80938F01EE
:101930008091BB00F0E0E159FE4F80833BC0803BCB
:1019400039F0D0F4803A09F477C0883A09F09CCF96
:1019500084E08093910110926E0110926D01F0E08D
:10196000E0E0099580916D0181110FC081E08093C5
:101970006D0110924D0109C0803C09F4A8CF883C4C
:1019800009F4A5CF883B09F07FCFE0916E0181E09B
:101990008E0F80936E01F0E0E35BFE4F80818093B9
:1019A000BB0090916E0180916D0129C08091B601BC
:1019B0008093BB0085EC8093BC0066CF9091B5010D
:1019C0008091B401981758F5E091B50181E08E0F30
:1019D0008093B501F0E0EC56FE4F8081E9CFE091B5
:1019E000B50181E08E0F8093B5018091BB00F0E0DE
:1019F000EC56FE4F80839091B5018091B401981709
:101A0000C8F285E8D8CFE091B50181E08E0F8093D0
:101A1000B5018091BB00F0E0EC56FE4F80838091D1
:101A2000930181115ECF81E08093920184EA8093DB
:101A3000BC001092910128CF85EC8093BC001092DD
:101A4000910180918F01803230F4E0918F01F0E0BC
:101A5000E159FE4F108260918F0170E08FE691E0B6
:101A6000F0E0E0E0099510928F010ECF1092900106
:101A700038CF8F929F92AF92BF92CF92DF92EF9228
:101A8000FF920F931F93CF93DF93E7ECF1E0138264
:101A9000128288EE93E0A0E0B0E084839583A68371
:101AA000B7838EE091E09183808385EC90E0958709
:101AB000848784EC90E09787868780EC90E0918B18
:101AC000808B81EC90E0938B828B82EC90E0958B05
:101AD000848B86EC90E0978B868B118E128E138E02
:101AE000148EE8ECF2E0C0E2D1E0D183C083882418
:101AF000839483821486158616861786108A118A27
:101B0000128A138A148A158A168A178AC12CD12C34
:101B100080E8E82E8FE3F82EC08ED18EE28EF38E11
:101B2000148E158E168E178EC0A2D1A2E2A2F3A239
:101B300014A215A216A217A201E010E015A704A78F
:101B4000BB24BA94B7A610A611A612A613A683E0CA
:101B5000848395E0992E958224E0A22EA682978216
:101B600016A614AA15AA16AA17AA10AE11AE12AE7E
:101B700013AE14AE15AE16AE17AEC0920803D092D7
:101B80000903E0920A03F0920B0312821086118679
:101B900012861386CF010E948F04B701A60188EC3C
:101BA00092E00E94AB0AE4E8F2E0D183C083838232
:101BB0001486158616861786108A118A128A138A49
:101BC000148A158A168A178AC08ED18EE28EF38EF9
:101BD000148E158E168E178EC0A2D1A2E2A2F3A289
:101BE00014A215A216A217A215A704A7B7A610A69D
:101BF00011A612A613A6A48287E08583A6829782E7
:101C000016A614AA15AA16AA17AA10AE11AE12AEDD
:101C100013AE14AE15AE16AE17AEC092C402D0927B
:101C2000C502E092C602F092C702128210861186A7
:101C300012861386CF010E948F04B701A60184E8A3
:101C400092E00E94AB0AC5E6D2E08AE08B87BE86AE
:101C5000BD86BC8684E692E0998388831B8E82E0F1
:101C600090E00E94DC1325E5FC01208311829B8318
:101C70008A8380E492E4AFE0B0E08C839D83AE83FE
:101C8000BF8319870887AA861C8EDF91CF911F9189
:101C90000F91FF90EF90DF90CF90BF90AF909F900B
:101CA0008F900895789484B5826084BD84B58160F6
:101CB00084BD85B5826085BD85B5816085BD809117
:101CC0006E00816080936E0010928100809181008F
:101CD0008260809381008091810081608093810087
:101CE000809180008160809380008091B100846049
:101CF0008093B1008091B00081608093B0008091AA
:101D00007A00846080937A0080917A008260809368
:101D10007A0080917A00816080937A0080917A00C5
:101D2000806880937A001092C100E091D701F09111
:101D3000D80182E08083E091D301F091D401108238
:101D4000E091D501F091D60180E180831092DF010E
:101D5000E091DB01F091DC0186E08083E091D90124
:101D6000F091DA01808180618083E091D901F09166
:101D7000DA01808188608083E091D901F091DA01F5
:101D8000808180688083E091D901F091DA018081BF
:101D90008F7D808320E030E04AE755E46091E002E7
:101DA0007091E1028091E2029091E3020E9464113D
:101DB000882309F453C080E090E0AAE7B5E480935B
:101DC000E0029093E102A093E202B093E30280E08C
:101DD00090E0AAE7B3E48093080390930903A093EB
:101DE0000A03B0930B038091FC029091FD02A09135
:101DF000FE02B091FF02181619061A061B0674F5AA
:101E00006091DC027091DD028091DE029091DF0230
:101E10009B01AC010E94C8126B017C016091E4023D
:101E20007091E5028091E6029091E7029B01AC017E
:101E30000E94F8109B01AC01C701B6010E94691114
:101E40000E94DB116093FC027093FD028093FE02FE
:101E50009093FF0288EC92E00E949A0640E050E0E6
:101E60006AEF75E488EC92E00E94AB0A20E030E073
:101E70004AE755E46091DC027091DD028091DE0258
:101E80009091DF020E946411882341F040E050E00D
:101E90006AE775E488EC92E00E94240420E030E0D8
:101EA00048E453E460919C0270919D0280919E02EF
:101EB00090919F020E946411882309F453C080E02E
:101EC00090E0A8E4B3E480939C0290939D02A093D9
:101ED0009E02B0939F0280E090E4ACE9B5E4809369
:101EE000C4029093C502A093C602B093C70280912A
:101EF000B8029091B902A091BA02B091BB02181633
:101F000019061A061B0674F56091980270919902E1
:101F100080919A0290919B029B01AC010E94C81291
:101F20006B017C016091A0027091A1028091A202DC
:101F30009091A3029B01AC010E94F8109B01AC019F
:101F4000C701B6010E9469110E94DB116093B802BB
:101F50007093B9028093BA029093BB0284E892E036
:101F60000E949A0640E050E068EC73E484E892E056
:101F70000E94AB0A20E030E048E453E4609198020C
:101F80007091990280919A0290919B020E94641133
:101F9000882341F040E050E068E473E484E892E094
:101FA0000E94240460E082E00E94FF0180917002A0
:101FB0008F3F41F061E00E94FF0161E0809170027B
:101FC0000E9495018091650290916602892B09F427
:101FD000B9C0CFB7F8948091C001811127C0EEEA53
:101FE000F0E08491EAE9F0E09491E82FF0E0EE0F60
:101FF000FF1FEA57FF4FA591B491EC91E92321F41B
:1020000061E08AE00E94950161E08AE00E94FF01A0
:102010008CB580618CBD8CB580648CBD61E08DE039
:102020000E94FF0161E08BE00E94FF018091C001EE
:102030008F5F8093C001CFBF81E080938002809347
:10204000810260E082E00E94500360E180E00E9433
:10205000500360E089E00E94500381E00E943A034F
:10206000807F682F636081E00E94500390E080E0F1
:102070000E94610381E00E943A03807F682F6760BD
:1020800081E00E94500382E090E00E94610384E7B7
:1020900098E09093010180930001809169008C7F0A
:1020A000826080936900E89A00E010E0D1E087EC5C
:1020B00091E00E94E60018161906CCF487EC91E036
:1020C0000E94C400C82F87EC91E00E94750140E097
:1020D00050E0BA01C13639F0C23609F057C040E2CB
:1020E00053E060E070E088EC92E00E94550888ECD4
:1020F00092E00E94EC0784E892E00E94EC07809155
:10210000C601882399F08091C501882379F06091F8
:10211000C1017091C2018091C3019091C40142E05C
:102120000E945A0982E491E00E94090901151105F3
:1021300009F4BDCF0E94F200882309F4B8CF0E94B1
:102140000000B5CF61E0809171020E94FF01809193
:102150006F028B7F60E009F061E0809171020E9464
:102160009501809172028F3F41F061E00E94FF0172
:1021700061E0809172020E949501809173028F3F0D
:1021800009F45ACF60E00E94FF0156CF40E050E0D2
:10219000BA01C33631F0C43639F440E75EEF6FEF71
:1021A0007FEF84E892E0A1CFC43781F46091C10150
:1021B0007091C2018091C3019091C40142E00E94DC
:1021C0005A0987EC91E00E94750191CFC63619F447
:1021D000D093C6018CCFC73609F089CF1092C601C3
:1021E00086CF80916702909168020C9478145058C1
:1021F000BB27AA270E940F110C9489120E947B1200
:1022000038F00E94821220F039F49F3F19F426F42E
:102210000C9478120EF4E095E7FB0C947212E92FFF
:102220000E949A1258F3BA1762077307840795073A
:1022300020F079F4A6F50C94BC120EF4E0950B2E68
:10224000BA2FA02D0B01B90190010C01CA01A00108
:102250001124FF27591B99F0593F50F4503E68F163
:102260001A16F040A22F232F342F4427585FF3CFA4
:10227000469537952795A795F0405395C9F77EF475
:102280001F16BA0B620B730B840BBAF09150A1F0BE
:10229000FF0FBB1F661F771F881FC2F70EC0BA0F44
:1022A000621F731F841F48F4879577956795B795CC
:1022B000F7959E3F08F0B0CF9395880F08F09927C7
:1022C000EE0F9795879508950E944E1208F481E0CD
:1022D00008950E947D110C9489120E94821258F078
:1022E0000E947B1240F029F45F3F29F00C94721297
:1022F00051110C94BD120C9478120E949A1268F33A
:102300009923B1F3552391F3951B550BBB27AA27AE
:1023100062177307840738F09F5F5F4F220F331FE8
:10232000441FAA1FA9F335D00E2E3AF0E0E832D0B0
:1023300091505040E695001CCAF72BD0FE2F29D0B3
:10234000660F771F881FBB1F261737074807AB0785
:10235000B0E809F0BB0B802DBF01FF2793585F4FFA
:102360003AF09E3F510578F00C9472120C94BD1215
:102370005F3FE4F3983ED4F3869577956795B795DC
:10238000F7959F5FC9F7880F911D9695879597F9E7
:102390000895E1E0660F771F881FBB1F6217730760
:1023A0008407BA0720F0621B730B840BBA0BEE1F75
:1023B00088F7E09508950E94E2116894B1110C9499
:1023C000BD1208950E94A21288F09F5798F0B92F6D
:1023D0009927B751B0F0E1F0660F771F881F991F5A
:1023E0001AF0BA95C9F714C0B13091F00E94BC122E
:1023F000B1E008950C94BC12672F782F8827B85F3E
:1024000039F0B93FCCF3869577956795B395D9F7B1
:102410003EF490958095709561957F4F8F4F9F4FBB
:102420000895E89409C097FB3EF4909580957095C7
:1024300061957F4F8F4F9F4F9923A9F0F92F96E910
:10244000BB279395F695879577956795B795F11185
:10245000F8CFFAF4BB0F11F460FF1BC06F5F7F4F22
:102460008F4F9F4F16C0882311F096E911C0772334
:1024700021F09EE8872F762F05C0662371F096E83D
:10248000862F70E060E02AF09A95660F771F881F0C
:10249000DAF7880F9695879597F90895990F0008B0
:1024A000550FAA0BE0E8FEEF16161706E807F90726
:1024B000C0F012161306E407F50798F0621B730BC1
:1024C000840B950B39F40A2661F0232B242B252B42
:1024D00021F408950A2609F4A140A6958FEF811DE5
:1024E000811D089597F99F6780E870E060E0089586
:1024F0009FEF80EC089500240A941616170618061C
:102500000906089500240A941216130614060506F7
:102510000895092E0394000C11F4882352F0BB0F88
:1025200040F4BF2B11F460FF04C06F5F7F4F8F4FEB
:102530009F4F089557FD9058440F551F59F05F3F26
:1025400071F04795880F97FB991F61F09F3F79F0D5
:1025500087950895121613061406551FF2CF469557
:10256000F1DF08C0161617061806991FF1CF8695D9
:102570007105610508940895E894BB2766277727BD
:10258000CB0197F908950E944E1208F48FEF089539
:102590000E94DB120C9489120E947B1238F00E9478
:1025A000821220F0952311F00C9472120C94781280
:1025B00011240C94BD120E949A1270F3959FC1F3DE
:1025C000950F50E0551F629FF001729FBB27F00DE1
:1025D000B11D639FAA27F00DB11DAA1F649F662736
:1025E000B00DA11D661F829F2227B00DA11D621F85
:1025F000739FB00DA11D621F839FA00D611D221F3F
:10260000749F3327A00D611D231F849F600D211D22
:10261000822F762F6A2F11249F5750409AF0F1F0A5
:1026200088234AF0EE0FFF1FBB1F661F771F881F0E
:1026300091505040A9F79E3F510580F00C947212C2
:102640000C94BD125F3FE4F3983ED4F386957795E2
:102650006795B795F795E7959F5FC1F7FE2B880FB4
:10266000911D9695879597F9089519F416F40C9491
:1026700078120C9480130E94A212B8F39923C9F324
:10268000B6F39F57550B87FF0E948E130024A0E6D8
:1026900040EA900180585695979528F4805C660F23
:1026A000771F881F20F026173707480730F4621B72
:1026B000730B840B202931294A2BA6951794079474
:1026C000202531254A2758F7660F771F881F20F0ED
:1026D00026173707480730F4620B730B840B200D65
:1026E000311D411DA09581F7B901842F9158880FA4
:1026F0009695879508950E944E12880B990B089520
:102700009F3F31F0915020F4879577956795B79565
:10271000880F911D9695879597F90895915050408F
:10272000660F771F881FD2F70895A1E21A2EAA1B01
:10273000BB1BFD010DC0AA1FBB1FEE1FFF1FA21771
:10274000B307E407F50720F0A21BB30BE40BF50B6E
:10275000661F771F881F991F1A9469F760957095F7
:10276000809590959B01AC01BD01CF010895052E88
:1027700097FB1EF400940E94CE1357FD07D00E94D1
:10278000951307FC03D04EF40C94CE13509540954E
:10279000309521953F4F4F4F5F4F0895909580950D
:1027A000709561957F4F8F4F9F4F0895EE0FFF1FDC
:1027B0000590F491E02D09940F931F93CF93DF932D
:1027C0008230910510F482E090E0E0910E03F091E8
:1027D0000F0330E020E0B0E0A0E0309799F421153D
:1027E000310509F44AC0281B390B24303105D8F5CE
:1027F0008A819B816115710589F1FB019383828335
:10280000FE0111C04081518102811381481759078F
:10281000E0F04817590799F4109761F012960C935D
:10282000129713961C933296CF01DF91CF911F918F
:102830000F91089500930E0310930F03F4CF211509
:10284000310551F04217530738F0A901DB019A0115
:10285000BD01DF01F801C1CFEF01F9CF90930F0364
:1028600080930E03CDCFFE01E20FF31F819391936E
:102870002250310939832883D7CF20910C0330911E
:102880000D03232B41F42091060130910701309371
:102890000D0320930C0320910401309105012115B3
:1028A000310541F42DB73EB740910801509109011F
:1028B000241B350BE0910C03F0910D03E217F30795
:1028C000A0F42E1B3F0B2817390778F0AC014E5FA0
:1028D0005F4F2417350748F04E0F5F1F50930D03CD
:1028E00040930C03819391939FCFF0E0E0E09CCF65
:1028F000CF93DF930097E9F0FC01329713821282A5
:10290000A0910E03B0910F03ED0130E020E010978D
:10291000A1F420813181820F931F20910C0330910B
:102920000D032817390709F061C0F0930D03E093F8
:102930000C03DF91CF910895EA01CE17DF07E8F588
:102940004A815B819E0141155105B1F7E901FB8385
:10295000EA8349915991C40FD51FEC17FD0761F423
:10296000808191810296840F951FE9019983888364
:10297000828193819B838A83F0E0E0E012968D91BF
:102980009C9113970097B9F52D913C911197CD012A
:102990000296820F931F20910C0330910D0328178C
:1029A000390739F6309751F510920F0310920E0344
:1029B000B0930D03A0930C03BCCFD383C28340819B
:1029C0005181840F951FC817D90761F44E5F5F4F7F
:1029D00088819981480F591F518340838A819B8147
:1029E000938382832115310509F0B0CFF0930F0353
:1029F000E0930E039ECFFD01DC01C0CF1382128253
:102A0000D7CF10E0CDE5D0E004C0FE010E94D61380
:102A10002196CE35D107C9F7F894FFCFCF03CF0366
:102A20000000100380000000000028018800B500AD
:102A30007501E600C400D80000000000C3048F0444
:102A40001C065A060606DC05BB058705660510054B
:102A5000E1046E616E00696E66006F7666000D0AB5
:022A6000000074
:107E0000112484B714BE81FFF0D085E080938100F7
:107E100082E08093C00088E18093C10086E0809377
:107E2000C20080E18093C4008EE0C9D0259A86E02C
:107E300020E33CEF91E0309385002093840096BBD3
:107E4000B09BFECF1D9AA8958150A9F7CC24DD24C4
:107E500088248394B5E0AB2EA1E19A2EF3E0BF2EE7
:107E6000A2D0813461F49FD0082FAFD0023811F036
:107E7000013811F484E001C083E08DD089C08234E0
:107E800011F484E103C0853419F485E0A6D080C0E4
:107E9000853579F488D0E82EFF2485D0082F10E0AE
:107EA000102F00270E291F29000F111F8ED06801E7
:107EB0006FC0863521F484E090D080E0DECF843638
:107EC00009F040C070D06FD0082F6DD080E0C81688
:107ED00080E7D80618F4F601B7BEE895C0E0D1E017
:107EE00062D089930C17E1F7F0E0CF16F0E7DF06D8
:107EF00018F0F601B7BEE89568D007B600FCFDCFD4
:107F0000A601A0E0B1E02C9130E011968C91119780
:107F100090E0982F8827822B932B1296FA010C0160
:107F200087BEE89511244E5F5F4FF1E0A038BF0790
:107F300051F7F601A7BEE89507B600FCFDCF97BE46
:107F4000E89526C08437B1F42ED02DD0F82E2BD052
:107F50003CD0F601EF2C8F010F5F1F4F84911BD097
:107F6000EA94F801C1F70894C11CD11CFA94CF0C13
:107F7000D11C0EC0853739F428D08EE10CD085E9AC
:107F80000AD08FE07ACF813511F488E018D01DD067
:107F900080E101D065CF982F8091C00085FFFCCF94
:107FA0009093C60008958091C00087FFFCCF809118
:107FB000C00084FD01C0A8958091C6000895E0E648
:107FC000F0E098E1908380830895EDDF803219F02E
:107FD00088E0F5DFFFCF84E1DECF1F93182FE3DFCA
:107FE0001150E9F7F2DF1F91089580E0E8DFEE27F6
:047FF000FF270994CA
:027FFE00040479
:00000001FF
